S016000041544D454C5F45544845524E45542E73726563DD
S11300000C9463000C948B000C948B000C948B0068
S11300100C948B000C948B000C948B000C948B0030
S11300200C948B000C948B000C948B000C948B0020
S11300300C948B000C948B000C947C1A0C948B0005
S11300400C948B000C948B000C948B000C948B0000
S11300500C948B000C948B000C948B000C948B00F0
S11300600C948B000C948B00BC1AC51ACE1AD71AA8
S1130070E01AE91AF21AFB1A151B1E1B271B301B68
S1130080391B421B4B1B651B6D1B751B7D1B851B85
S11300908D1B951B9D1BC01BCD1BDA1BE71BF41B83
S11300A0011C0E1C1B1C391C461C531C601C6D1CA3
S11300B07A1C871CA51CB01CBB1CC61CD11CDC1CD8
S11300C0E71CF21CA01A11241FBECFEFD8E0DEBF3C
S11300D0CDBF13E0A0E0B1E0ECE0F1E402C0059094
S11300E00D92AC39B107D9F728E0ACE9B3E001C00F
S11300F01D92A532B207E1F710E0C3E6D0E004C0D8
S11301002197FE010E94481DC236D107C9F70E94FB
S113011037190C9484200C9400008F929F92AF9214
S1130120BF92CF92DF92EF92FF92CF93DF9385300D
S113013008F05CC0F82EC82FD0E06E0184E0C80E31
S1130140D11CDC2CCC2446018FEF881A980A092C88
S1130150000CAA08BB0840E1C501B4010E94C70510
S1130160C501B4010E94F3058111FACFB6016E5F97
S11301707F4F072E000C880B990B4FEF0E94C70589
S113018081E090E002C0880F991FFA94E2F780950D
S113019090952091AA033091AB03282339233093FF
S11301A0AB032093AA032091A8033091A9038223CF
S11301B093239093A9038093A803FE01EE0FFF1FDE
S11301C0E056FC4F11821082C456DC4F188283E043
S11301D0C80ED11C0D2C000CEE08FF08C701B60197
S11301E00E94F3058111FACF81E001C08FEFDF9106
S11301F0CF91FF90EF90DF90CF90BF90AF909F9002
S11302008F9008954F925F926F927F92AF92BF92B8
S1130210CF92DF92EF92FF920F931F93CF93DF93CE
S113022000D000D0CDB7DEB7182F562E3A01022FDA
S1130230853008F0CBC021E0621739F0621708F46A
S1130240C7C085E08617B0F4C3C024E030E0AE0137
S11302504F5F5F4F6FE070E080E090E00E947906AE
S113026089819A81AB81BC81892B8A2B8B2B11F4D8
S11302708DEFB5C002FDAEC0002381F021E052161F
S113028021F082E0581629F009C0802F817231F4E0
S1130290A3C005FF03C000230CF0A0C0812F0E945F
S11302A08D00A12EB12C650124E0C20ED11CDC2CE2
S11302B0CC24402F407F4529B6010D2C000C880B1F
S11302C0990B0E94C70561147104A9F460900001A0
S11302D070900101C3010196803F2FEF920729F02E
S11302E0909301018093000106C080E090EC90930C
S11302F0010180930001B6016C5F7F4F072E000C53
S1130300880B990B472D0E94C705B6016B5F7F4F81
S1130310072E000C880B990B462D0E94C705260159
S11303208FEF481A580A052C000C6608770841E03C
S1130330C301B2010E94C705C301B2010E94F305C3
S11303408111FACF81E090E0012E02C0880F991F3D
S11303500A94E2F7809590952091AA033091AB031B
S11303602823392300FBEE24E0F8F12C012E02C0EF
S1130370EE0CFF1C0A94E2F7E22AF32AF092AB0394
S1130380E092AA032091A8033091A9038223932326
S11303909093A9038093A803F501EE0FFF1FE05685
S11303A0FC4F11821082F501E456FC4F108223E0C9
S11303B0C20ED11C0D2C000CEE08FF08C701B601BB
S11303C00E94F3058823D1F3812F09C08FEF07C062
S11303D08BEF05C08AEF03C08AEF01C08AEF0F904C
S11303E00F900F900F90DF91CF911F910F91FF907D
S11303F0EF90DF90CF90BF90AF907F906F905F9021
S11304004F9008954F925F926F927F928F929F9236
S1130410AF92BF92CF92DF92EF92FF921F93CF934E
S1130420DF93853008F0BAC07A01EB01182FC82E8B
S1130430D12C84E0C80ED11CDC2CCC24B6010D2CAC
S1130440000C880B990B0E94F3058F70813009F022
S1130450A7C0460183E0880E911C092C000CAA0851
S1130460BB08C501B4010E94F305833109F09AC0A9
S1130470488150E060E070E0762F652F542F4427C8
S11304808981480F511D611D711D762F652F542FD1
S113049044278A81480F511D611D711D762F652FD8
S11304A0542F44278B8190E0A0E0B0E00197A1098C
S11304B0B109480F591F6A1F7B1F4E3F5F4F6F4F93
S11304C07F4F08F071C0E114F10409F46FC0B60164
S11304D0645F7F4F072E000C880B990B24E030E0FB
S11304E0AE010E941D06B601605F7F4F072E000C0F
S11304F0880B990B4F2D0E94C705B6016F5E7F4F85
S1130500072E000C880B990B4E2D0E94C70526015F
S11305108FEF481A580A052C000C6608770844E047
S1130520C301B2010E94C705C301B2010E94F305D1
S11305308111FACF81E090E002C0880F991F1A95CB
S1130540E2F72091AA033091AB0382239323892BF2
S113055079F582E0C80ED11C0D2C000CEE08FF08C2
S113056015C0C701B6010E94F30583FF09C048E026
S11305706C2D7D2D8E2D9F2D0E94C70583EF1BC0F2
S1130580C501B4010E94F3058823A1F0C501B4019B
S11305900E94F305873129F781E00DC08FEF0BC06E
S11305A08BEF09C08DEF07C084EF05C085EF03C052
S11305B080E001C08CEFDF91CF911F91FF90EF900D
S11305C0DF90CF90BF90AF909F908F907F906F906F
S11305D05F904F9008958F929F92AF92BF92CF9267
S11305E0DF92EF92FF921F93CF93DF93853008F051
S11305F065C0182FC82FD0E02496DC2FCC27BE016D
S11306000D2E000C880B990B0E94F3058F7081301E
S113061009F056C06E018FEFC81AD80A0D2C000CD1
S1130620EE08FF0848E0C701B6010E94C705C701EC
S1130630B6010E94F3058111FACF81E090E0012E0A
S113064002C0880F991F0A94E2F79C012095309507
S11306504091A8035091A903242335233093A9037F
S11306602093A8032091AA033091AB038223932300
S1130670892B41F54E0183E0880E911C092C000C56
S1130680AA08BB086E0182E0C80ED11C0D2C000C18
S1130690EE08FF080BC0C701B6010E94F30583FFF3
S11306A005C0812F0E948D0083EF0DC0C501B401E8
S11306B00E94F3058111EFCF81E005C08FEF03C0E5
S11306C08BEF01C080E0DF91CF911F91FF90EF90FD
S11306D0DF90CF90BF90AF909F908F9008952F920E
S11306E03F924F925F926F927F928F929F92AF92BE
S11306F0BF92CF92DF92EF92FF921F93CF93DF933B
S113070000D000D000D0CDB7DEB7853008F0E5C00A
S11307107A011B01182F282F30E03E832D836901B5
S113072034E0C30ED11CDC2CCC24B6010D2C000CFF
S1130730880B990B0E94F3058F70813009F0D1C0AA
S1130740E114F10409F4D2C0260143E0440E511C23
S1130750052C000C66087708C301B2010E94F3055A
S1130760873119F08C3109F0C6C081E090E04C016A
S1130770012E02C0880C991C0A94E2F7540180915E
S1130780A8039091A90388219921892B79F1C601A5
S113079002969C01990F440B550B29833A834B8392
S11307A05C83CA01B9010E94F30584FF15C040E1CE
S11307B069817A818B819C810E94C7052091A8035D
S11307C03091A903C401809590958223932390933B
S11307D0A9038093A8030AC083FF92C0812F0E94BB
S11307E08D0063EF7FEF8FEF9FEF91C06BE170E0BF
S11307F080E090E00E94F3054D815E81440F551F17
S11308005A83498323E030E0098002C0220F331F5A
S11308100A94E2F790E082239323098002C095951D
S113082087950A94E2F720E034E0A90102C0440F5E
S1130830551F8A95E2F74E155F0508F47A01812F5A
S11308400E94D4069A838983C301B2010E94F305EE
S1130850873151F08C3141F0812F0E948D0069EF76
S11308607FEF8FEF9FEF53C08091AA039091AB036A
S11308708A219B21892B31F089819A818E159F05CC
S113088030F442C029813A812E153F05C0F2A701F8
S1130890B101812F0E94490826013FEF431A530AF0
S11308A0052C000C6608770840E2C301B2010E94DF
S11308B0C705C301B2010E94F3058111FACF8091EB
S11308C0A8039091A903882A992A9092A903809257
S11308D0A803B70180E090E01AC06FEF7FEFCB016F
S11308E016C06BEF7FEF8FEF9FEF11C062EF7FEFCA
S11308F08FEF9FEF0CC069EF7FEF8FEF9FEF07C083
S113090060E070E0CB0103C060E070E0CB012696AC
S11309100FB6F894DEBF0FBECDBFDF91CF911F910C
S1130920FF90EF90DF90CF90BF90AF909F908F900B
S11309307F906F905F904F903F902F9008952F92EB
S11309403F924F925F926F927F928F929F92AF925B
S1130950BF92CF92DF92EF92FF920F931F93CF93A8
S1130960DF9300D000D000D0CDB7DEB7853008F0DB
S1130970D5C05A8349837C836B83382E482E512CEF
S1130980320124E0620E711C762C6624B301072C1C
S1130990000C880B990B0E94F3058F70813009F0CD
S11309A0C1C089819A81892B09F4C1C06AE170E0D0
S11309B080E090E00E94F305282E440C551C83E04F
S11309C090E07C01042C02C0EE0CFF1C0A94E2F7B8
S11309D001E010E0032C02C0000F111F0A94E2F79B
S11309E0430193E0890E911C092C000CAA08BB0852
S11309F0CC24C394D12C832D0E9427079E838D83FE
S1130A00C501B4010E94F3058731E1F18C3191F500
S1130A102D813E81232B09F047C0832D0E94D406EB
S1130A209E838D836BE170E080E090E00E94F3058B
S1130A3090E08E219F21042C02C0959587950A94FD
S1130A40E2F7960102C0220F331F8A95E2F7C9012B
S1130A50982F8827990F990F2D813E8128173907E0
S1130A6009F072C0832D0E948D0069EF7FEF8FEF34
S1130A709FEF74C0832D0E948D0069EF7FEF8FEF8D
S1130A809FEF6CC08091AA039091AB0380239123C4
S1130A90892B29F08D819E81892B31F44DC02D81C4
S1130AA03E81232B09F4A7CF822D90E0E822F9227E
S1130AB002C0F594E7944A94E2F780E094E002C01F
S1130AC0880F991FEA94E2F729813A8182179307E4
S1130AD008F49C0189018D819E818217930708F493
S1130AE08C01A8016B817C81832D0E9458096301CC
S1130AF09FEFC91AD90A0D2C000CEE08FF0840E438
S1130B00C701B6010E94C705C701B6010E94F305DB
S1130B108111FACFB80180E090E020C06FEF7FEF41
S1130B20CB011CC06BEF7FEF8FEF9FEF17C062EF1D
S1130B307FEF8FEF9FEF12C060E070E0CB010EC03B
S1130B4060E070E0CB010AC08091AA039091AB03EE
S1130B5080239123892B09F44ECFF2CF26960FB62A
S1130B60F894DEBF0FBECDBFDF91CF911F910F91DF
S1130B70FF90EF90DF90CF90BF90AF909F908F90B9
S1130B807F906F905F904F903F902F900895FF92C9
S1130B900F931F93CF93DF93062FF72E142FC2E0EA
S1130BA0D1E0E885F9850995EC85FD850995EA8903
S1130BB0FB8980EF0995EA89FB898F2D0995EA89DC
S1130BC0FB89802F0995EA89FB89812F0995EE8598
S1130BD0FF850995EA85FB850995DF91CF911F91E2
S1130BE00F91FF9008950F931F93CF93DF93162FC8
S1130BF0072FC2E0D1E0E885F9850995EC85FD85EC
S1130C000995EA89FB898FE00995EA89FB89802F98
S1130C100995EA89FB89812F0995E889F98909955C
S1130C20182FEE85FF850995EA85FB850995812FA7
S1130C30DF91CF911F910F9108958F929F92AF9260
S1130C40BF92CF92DF92EF92FF920F931F93CF93B5
S1130C50DF934B015C016A017901C2E0D1E0E885D0
S1130C60F9850995EC85FD850995E114F10461F197
S1130C70E4018601CE0CDF1C0F2EF2E0EF2EF1E032
S1130C80FF2EF02DD7011C96ED91FC911D9709952F
S1130C908FE090E00E94820A8D2F90E00E94820AE9
S1130CA0CE0199270E94820AF80181918F0190E078
S1130CB00E94820AD7011E96ED91FC911F97099517
S1130CC021960C151D05F1F6C2E0D1E0EE85FF85F5
S1130CD00995EA85FB850995DF91CF911F910F91C5
S1130CE0FF90EF90DF90CF90BF90AF909F908F9048
S1130CF008958F929F92AF92BF92CF92DF92EF921C
S1130D00FF920F931F93CF93DF934B015C016A0112
S1130D107901C2E0D1E0E885F9850995EC85FD8586
S1130D200995E114F10459F1E4018601CE0CDF1CAC
S1130D300F2EF2E0EF2EF1E0FF2EF02DD7011C96DE
S1130D40ED91FC911D9709958FE090E00E94820A35
S1130D508D2F90E00E94820A8D2F90E00E94820ADB
S1130D600E94730AF80181938F01D7011E96ED91B9
S1130D70FC911F97099521960C151D05F9F6C2E003
S1130D80D1E0EE85FF850995EA85FB850995DF911C
S1130D90CF911F910F91FF90EF90DF90CF90BF9074
S1130DA0AF909F908F9008958F929F92AF92BF9231
S1130DB0CF92DF92EF92FF920F931F93CF93DF9323
S1130DC0C82ED12C84E0C80ED11CDC2CCC244601C6
S1130DD080E2880E911C092C000CAA08BB0881E251
S1130DE0C80ED11C0D2C000CEE08FF0800E010E02A
S1130DF0C501B4010E94F305C82FD0E0DC2FCC2735
S1130E00C701B6010E94F305C80FD11D209771F0E8
S1130E10C501B4010E94F305082F10E0102F00272C
S1130E20C701B6010E94F305080F111D0C171D0719
S1130E30F9F6CE01DF91CF911F910F91FF90EF90C2
S1130E40DF90CF90BF90AF909F908F9008958F9236
S1130E509F92AF92BF92CF92DF92EF92FF920F9345
S1130E601F93CF93DF93C82ED12C84E0C80ED11CDE
S1130E70DC2CCC24460186E2880E911C092C000C43
S1130E80AA08BB0887E2C80ED11C0D2C000CEE0882
S1130E90FF0800E010E0C501B4010E94F305C82F6B
S1130EA0D0E0DC2FCC27C701B6010E94F305C80FA0
S1130EB0D11D209771F0C501B4010E94F305082FDC
S1130EC010E0102F0027C701B6010E94F305080F98
S1130ED0111D0C171D07F9F6CE01DF91CF911F915B
S1130EE00F91FF90EF90DF90CF90BF90AF909F90C5
S1130EF08F9008957F928F929F92AF92BF92CF92DC
S1130F00DF92EF92FF920F931F93CF93DF93C82F3B
S1130F10D0E01C161D060CF040C0C12CD12C0F2EA5
S1130F20812CF0E69F2EA12CB12CF02D712C0F2ECC
S1130F30F3E0EF2EF12CF02D01E010E06AE170E017
S1130F4080E090E00E94F305CC0CDD1C97010C2C92
S1130F5002C0220F331F0A94E2F790E08223932306
S1130F6002C095958795CA94E2F7980102C0220FB2
S1130F70331F8A95E2F7C901982F8827990F990F93
S1130F80880E991EA11CB11C7394C72C072C000C4D
S1130F90DD08CC16DD0694F207C00F2E812CF0E696
S1130FA09F2EA12CB12CF02DC501B401DF91CF915E
S1130FB01F910F91FF90EF90DF90CF90BF90AF9073
S1130FC09F908F907F9008957F928F929F92AF927F
S1130FD0BF92CF92DF92EF92FF920F931F93CF9322
S1130FE0DF93C82FD0E01C161D06F4F5C12CD12CBC
S1130FF0812C912C5401689496F8712C0F2EF3E0F7
S1131000EF2EF12CF02D01E010E06BE170E080E0B8
S113101090E00E94F305CC0CDD1C97010C2C02C05F
S1131020220F331F0A94E2F790E08223932302C035
S113103095958795CA94E2F7980102C0220F331F51
S11310408A95E2F7C901982F8827990F990F880E7E
S1131050991EA11CB11C7394C72C072C000CDD082D
S1131060CC16DD0694F205C0812C912C54016894B1
S113107096F8C501B401DF91CF911F910F91FF90B4
S1131080EF90DF90CF90BF90AF909F908F907F9024
S113109008952F923F924F925F926F927F928F9218
S11310A09F92AF92BF92CF92DF92EF92FF920F93F3
S11310B01F93CF93DF93CDB7DEB72B970FB6F8947A
S11310C0DEBF0FBECDBF8B837D836C832A01282FA7
S11310D030E03A832983690184E0C80ED11CDC2CFA
S11310E0CC24460194E2890E911C092C000CAA0818
S11310F0BB08C501B4010E94F305182F25E2C20EF6
S1131100D11C0D2C000CEE08FF08C701B6010E948B
S1131110F305212F30E0322F22273901680E711C8C
S11311206BE170E080E090E00E94F30529813A8150
S1131130220F331F3A83298323E030E0098002C061
S1131140220F331F0A94E2F73B872A8790E0822319
S11311509323098002C0959587950A94E2F7222487
S11311602394312C810102C0000F111F8A95E2F7EC
S1131170102F0027110F110F0150110906211721FB
S11311808B810E94E4079801260F371F3F832E832B
S1131190C801840D951D998788876BE170E080E014
S11311A090E00E94F30590E02A853B8582239323F7
S11311B0098002C0959587950A94E2F702C0220C33
S11311C0331C8A95E2F7322C2224330C330C8885A5
S11311D0998528163906E8F56BE170E080E090E027
S11311E00E94F30590E02A853B858223932309809E
S11311F002C0959587950A94E2F720E034E002C096
S1131200220F331F8A95E2F7201B310B3A8329837F
S11312102E813F81B90180E090E029813A814C819F
S11312205D810E941D060C811D8189819A81080FB0
S1131230191F9201281B390B3A8329838B810E9441
S1131240E4078827992729813A81A8010E941D066D
S11312500AC02E813F81B90180E090E092014C8167
S11312605D810E941D06460C571C452DC501B40125
S11312700E94C705442DC701B6010E94C7052B96DD
S11312800FB6F894DEBF0FBECDBFDF91CF911F9193
S11312900F91FF90EF90DF90CF90BF90AF909F9011
S11312A08F907F906F905F904F903F902F90089514
S11312B02F923F924F925F926F927F928F929F9262
S11312C0AF92BF92CF92DF92EF92FF920F931F9350
S11312D0CF93DF93CDB7DEB72B970FB6F894DEBF6D
S11312E00FBECDBF8B837D836C832A01282F30E012
S11312F03A832983690184E0C80ED11CDC2CCC24F8
S1131300460198E2890E911C092C000CAA08BB081E
S1131310C501B4010E94F305182F29E2C20ED11CA5
S11313200D2C000CEE08FF08C701B6010E94F3055E
S1131330212F30E0322F22273901680E711C6AE117
S113134070E080E090E00E94F30529813A81220F49
S1131350331F3A83298323E030E0098002C0220F3F
S1131360331F0A94E2F73B872A8790E08223932372
S1131370098002C0959587950A94E2F72224239464
S1131380312C810102C0000F111F8A95E2F7102F42
S11313900027110F110F01501109062117218B810C
S11313A00E947A079801260F371F3F832E83C801B6
S11313B0840D951D998788876AE170E080E090E04C
S11313C00E94F30590E02A853B85822393230980BC
S11313D002C0959587950A94E2F702C0220C331C4B
S11313E08A95E2F7322C2224330C330C88859985B4
S11313F028163906E8F56AE170E080E090E00E9482
S1131400F30590E02A853B8582239323098002C05B
S1131410959587950A94E2F720E034E002C0220F04
S1131420331F8A95E2F7201B310B3A8329832E81DF
S11314303F81B90180E090E029813A814C815D814E
S11314400E9479060C811D8189819A81080F191FD8
S11314509201281B390B3A8329838B810E947A07D6
S11314608827992729813A81A8010E9479060AC010
S11314702E813F81B90180E090E092014C815D8131
S11314800E947906460C571C452DC501B4010E94E3
S1131490C705442DC701B6010E94C7052B960FB698
S11314A0F894DEBF0FBECDBFDF91CF911F910F9196
S11314B0FF90EF90DF90CF90BF90AF909F908F9070
S11314C07F906F905F904F903F902F900895089574
S11314D008952A9808952A9A0895FB018081089511
S11314E0FB01408308952C981EBC0DB407FEFDCF6C
S11314F02C9A8EB508952C988EBD0DB407FEFDCFA1
S11315002C9A08950E947B0A0895E0ECF0E0908103
S113151095FFFDCF8093C6000895DF92EF92FF926E
S11315200F931F93CF93DF931F92CDB7DEB719822A
S1131530298121111AC07C0100E010E0DD24D3943C
S1131540F701E00FF11F80818A3029F00E94850A9B
S11315500F5F1F4F04C0D9828AE00E94850A0E31B2
S113156011051CF49981992359F30F90DF91CF91C0
S11315701F910F91FF90EF90DF900895CF93DF9329
S1131580EC0186EA91E00E948D0A26E030E0AE018B
S113159069E070E080E090E00E941D068BEB91E032
S11315A00E948D0AAE01425F5F4F24E030E061E0AB
S11315B070E080E090E00E941D0684EC91E00E94BF
S11315C08D0AAE01465F5F4F24E030E065E070E0D5
S11315D080E090E00E941D068CEC91E00E948D0A50
S11315E0AE014A5F5F4F24E030E06FE070E080E0DE
S11315F090E00E941D0688ED91E00E948D0AEDEABC
S1131600F3E08A8980838B8981838C8982838D89A5
S113161083838E898093AC03DF91CF9108958F9259
S11316209F92AF92BF92CF92DF92EF92FF920F936D
S11316301F93CF93DF937C016B015A011616170693
S11316401CF1C0E0D0E027C0D7019796ED91FC9142
S1131650989784809580C5010E9415188C01990F74
S1131660220B330BF701608571856C0F7D1FA6017A
S113167087A190A5F401099599236CF0C80FD91F8F
S1131680CC15DD051CF007C0C0E0D0E0C5010E9408
S1131690CF178823C9F2CC16DD0661F4D7011C9656
S11316A06D917C911D97C70189960E94FA1780E07D
S11316B090E002C08FEF9FEFDF91CF911F910F91C8
S11316C0FF90EF90DF90CF90BF90AF909F908F905E
S11316D00895CF92DF92EF92FF920F931F93FC0134
S11316E070A767A3128A118A168A158A128E118E20
S11316F0168E158E12A211A253834283318720873E
S113170015830483F386E286D782C682108A1786FD
S1131710168616A215A281E090E091838083CF0102
S113172089960E94C9171F910F91FF90EF90DF9047
S1131730CF9008952F923F924F925F926F927F9233
S11317408F929F92AF92BF92CF92DF92EF92FF92CD
S11317500F931F93CF93DF9300D000D0CDB7DEB7A4
S11317603C016B012A018C015C0184E1A80EB11CCF
S1131770EE24EA94FE2C312C212C4801D8015196F8
S11317806D917C9152976115710509F463C0C6018E
S11317900E940315892B09F04DC0F80181899289B3
S11317A0D6011496ED91FC91159712962D913C91CA
S11317B013972E0F3F1FDC014C91442309F46EC094
S11317C0E217F30708F046C01196C901019701C05A
S11317D0119650815F3219F44F32F9F026C04B3222
S11317E029F04332B1F05417C1F01FC0AF014F5F6D
S11317F05F4F4217530708F04DC041814F3209F43F
S113180044C03196E817F90739F041814F32C9F7DE
S11318103CC0F901319701C0FC0131964C9144233D
S1131820E9F1E217F307A0F215C02E173F0791F470
S1131830411110C0D4015396ED91FC915497309707
S113184049F0DC82CB825A824982CE010196099505
S1131850E32CF22C0C5F1F4F0A151B0509F08DCFEA
S1131860BFEFEB16FB06F1F4D3019596ED91FC91D5
S113187096973097B9F0DC82CB825A824982CE01A6
S113188001960995E12CF12C0DC031964C91411132
S11318909FCF04C031968C918111DCCF2E173F0766
S11318A0C9F6C8CFC7010F900F900F900F90DF912A
S11318B0CF911F910F91FF90EF90DF90CF90BF9049
S11318C0AF909F908F907F906F905F904F903F90DC
S11318D02F9008950F931F93CF93DF93CDB7DEB767
S11318E028970FB6F894DEBF0FBECDBFFC01248548
S11318F03585232B71F18C0189960E94CF1788239B
S113190059F1F801868581112AC0CE0101960E9401
S1131910C91768EE73E0CE0101960E94E717F8013B
S113192064817581808591850E9485121816190637
S11319306CF4AE014F5F5F4FBC01C8010E940F0BF6
S1131940009779F421E0F80126870BC08FEF9FEF11
S113195008C080E090E005C08FEF9FEF02C08FEFDA
S11319609FEF28960FB6F894DEBF0FBECDBFDF9170
S1131970CF911F910F9108952F923F924F925F92B2
S11319806F927F928F929F92AF92BF92CF92DF928B
S1131990EF92FF920F931F93CF93DF93CDB7DEB7F0
S11319A061970FB6F894DEBF0FBECDBF3C012B018B
S11319B0DC019796ED91FC919897E280F380CB013E
S11319C00E9415188C01990F220B330BF3016285C9
S11319D0738541E050E087A190A5F701099501972F
S11319E009F00FC1C2010E9415186894CC24C2F8F2
S11319F0D12CE12CF12C22242394312C4C01990F6D
S1131A00AA08BB0804C0F1E0CF1AD10829F1D30118
S1131A1097968D919C919897DC011296ED91FC918B
S1131A2013979501840141E050E0BE016F5F7F4F41
S1131A300995019789F48981982F9F77929D900148
S1131A40939D300D1124E20EF31E3694322C222481
S1131A50379427948823BCF2F30182859385B701D8
S1131A6001960E9474136C011E141F04FCF4D3012C
S1131A709796ED91FC919897A280B380C2010E9441
S1131A8015188C01990F220B330BBFEFCB1ADB0A0D
S1131A90F301628573856C0D7D1DA70187A190A557
S1131AA0F50109958E159F0509F0ABC0D3011A966F
S1131AB0ED91FC911B97808182958F70282E312C9B
S1131AC0853009F465C08D3009F48BC0833009F08A
S1131AD08EC016968D909C9017975F01FE013896E4
S1131AE06F01CE0106967C018E01065F1F4F9E0199
S1131AF02C5F3F4FAE014E5F5F4FBE01605F7F4F73
S1131B0003970E9489120197B9F588898983AE01E8
S1131B104F5F5F4FB801C3010E949A0B89818823EC
S1131B20A1F1813081F40C811D81D30114966D9152
S1131B307C91159720E044E018968D919C9119971B
S1131B400E94E7150DC08230D1F40C811D81F30190
S1131B506481758120E045E0808591850E94E715C8
S1131B60181619067CF4A201BC01C3010E940F0BD4
S1131B708C010196F1F540C000E010E03DC00FEF8C
S1131B801FEF3AC00FEF1FEF37C000E010E031C085
S1131B90D30116960D911C9117979F01AE014F5FCB
S1131BA05F4FBE01605F7F4FCE010A960E941713FC
S1131BB0019769F509811A81F3016481758120E037
S1131BC046E0808591850E94E71518161906FCF4F5
S1131BD0A201BC01C3010E940F0B8C01892BB9F433
S1131BE008C0D3011E961C9200E010E002C000E081
S1131BF010E0C3010E946A0C0115110551F4810122
S1131C0008C022242A94322C00E010E0F2CF0FEF17
S1131C101FEFC80161960FB6F894DEBF0FBECDBFAB
S1131C20DF91CF911F910F91FF90EF90DF90CF90B4
S1131C30BF90AF909F908F907F906F905F904F90E8
S1131C403F902F900895EF92FF920F931F93CF939D
S1131C50DF93CDB7DEB728970FB6F894DEBF0FBE7B
S1131C60CDBF8C017B01CE0101960E94C917B7013B
S1131C70CE0101960E94E717BE016F5F7F4FC80136
S1131C800E94BC0C21E030E0019611F020E030E02D
S1131C9088279927821B930B28960FB6F894DEBFEA
S1131CA00FBECDBFDF91CF911F910F91FF90EF90A9
S1131CB00895CF92DF92EF92FF920F931F93CF93E9
S1131CC0DF936C017B018A01CFEFDFEFC8010E9433
S1131CD0CF17811109C0B801C6010E94BC0CEC01E8
S1131CE08E159F0599F7E701CE01DF91CF911F91E2
S1131CF00F91FF90EF90DF90CF900895EF92FF92B5
S1131D000F931F93CF93DF93CDB7DEB7EB970FB647
S1131D10F894DEBF0FBECDBF8C017B0181E3E4E408
S1131D20F1E0DE01199601900D928A95E1F780EEBB
S1131D3091E00E944318F80187859089892B09F066
S1131D4064C0CE0101960E94C917F80162817381B3
S1131D50CE0101960E94E717E114F10441F48AEFE1
S1131D6091E00E9443187E01F9E0EF0EF11CF701A7
S1131D7065857685F80175876487C80189960E9410
S1131D80FA17F80164817581A701808591850E9405
S1131D903E1118161906ECF5AE014F5F5F4FBC01FA
S1131DA0C8010E940F0B7C01892B29F089E092E085
S1131DB00E94431839C0AE014F5F5F4F62E070E08C
S1131DC0C8010E94590E029741F58FEF8BAF1AAEEE
S1131DD0F8012681378142855385BE01655C7F4FBA
S1131DE0CE01CA960E9415120197D9F4EBACF12CDE
S1131DF0E114F104C9F48EE192E00E94431881E0F9
S1131E0090E0F801908B87870FC0EE24EA94FE2CB3
S1131E100BC0EE24EA94FE2C07C0EE24EA94FE2CB8
S1131E2003C0EE24EA94FE2CC701EB960FB6F89497
S1131E30DEBF0FBECDBFDF91CF911F910F91FF90F9
S1131E40EF9008956F927F928F929F92AF92BF927C
S1131E50CF92DF92EF92FF920F931F93CF93DF9372
S1131E60CDB7DEB765970FB6F894DEBF0FBECDBF12
S1131E704D8B1C861B861E861D867A876987FC010E
S1131E8047855089452B09F48AC039014B015C010F
S1131E90CE0101960E94C917F50162817381CE01BA
S1131EA001960E94E717F501208131812F3FFFEF52
S1131EB03F0719F02F5F3F4F02C021E030E0F501EA
S1131EC03183208364817581CE0145966C01FE01C6
S1131ED039967F0101E010E040E0F50180859185AD
S1131EE00E945816181619060CF05DC0AE014F5F1B
S1131EF05F4FBC01C5010E940F0B6C01892B09F0D7
S1131F0059C0AE014F5F5F4F69E070E0C5010E94A8
S1131F10590E099709F04BC01C8A1B8A8FEF9FEF5B
S1131F209A8B898BF501E680F780028513859E01E3
S1131F302F5E3F4FAE014D5E5F4F61E070E0CE011A
S1131F400F960E94D616019731F449895A89403870
S1131F50510519F101C0A601F50181899289892BE6
S1131F6039F081E090E025893689232B79F402C089
S1131F7080E090E0880F991F880F991FF501E80F02
S1131F80F91F928A818A748A638A14C001963496EE
S1131F908530910541F76A010DC06A010BC0CC245C
S1131FA0CA94DC2C07C0CC24CA94DC2C03C0CC24F7
S1131FB0CA94DC2CC60165960FB6F894DEBF0FBE3A
S1131FC0CDBFDF91CF911F910F91FF90EF90DF90E4
S1131FD0CF90BF90AF909F908F907F906F90089517
S1131FE04F925F926F927F928F929F92AF92BF9225
S1131FF0CF92DF92EF92FF920F931F93CF93DF93D1
S1132000CDB7DEB762970FB6F894DEBF0FBECDBF73
S11320101C861B861E861D867A876987FC01278598
S11320203089232B09F4A2C03A012C01CE01019678
S11320300E94C917F20162817381CE0101960E9448
S1132040E717F30180818150823088F4F2018081A6
S113205091818F3FFFEF9F0711F0019602C081E04D
S113206090E0F20191838083F30194838383F301ED
S1132070E380F480208130E0F20164817581F30112
S113208080858F9387818F9386818F9385818F93AA
S113209089849A84AB84BC84CD84DE84018140E04D
S11320A0F201808591850E9458150F900F900F9032
S11320B00F90181619060CF05CC0AE014F5F5F4F0D
S11320C0BC01C2010E940F0B009709F05AC0F30132
S11320D02081213029F5AE014F5F5F4F64E070E04D
S11320E0C2010E94590E049709F046C0F20106810C
S11320F0178122853385AE01415F5F4FBE016E5E5D
S11321007F4FCE0141960E94171321E030E00197E2
S113211011F420E030E088279927821B930B31C00B
S1132120223079F5AE014F5F5F4F67E070E0C20186
S11321300E94590E079719F5F2010681178122852D
S11321403385AE01415F5F4FBE016E5E7F4FCE01AE
S113215041960E94171321E030E0019711F420E02A
S113216030E088279927821B930B0BC08FEF9FEFDA
S113217008C08FEF9FEF05C08FEF9FEF02C08FEF76
S11321809FEF62960FB6F894DEBF0FBECDBFDF910E
S1132190CF911F910F91FF90EF90DF90CF90BF9060
S11321A0AF909F908F907F906F905F904F90089525
S11321B0EF92FF920F931F93CF93DF93EC018E81E5
S11321C0833029F0843031F40AE010E005C00CE0DB
S11321D010E002C000E010E04F81588569857A85DF
S11321E08B859C850E94DE140296080F191F88892E
S11321F08823B1F04F89588D698D7A8D8B8D9C8D94
S11322000E94DE147C014D8D5E8D6F8D78A189A1B5
S11322109AA10E94DE148E0D9F1D0496080F191FAB
S11322208DA19EA1892B21F489A59AA5892B59F00A
S11322304DA15EA16FA178A589A59AA50E94DE147F
S11322400296080F191F8BA59CA5892B21F48FA535
S113225098A9892B59F04BA55CA56DA57EA58FA5E2
S113226098A90E94DE140296080F191FC801DF9175
S1132270CF911F910F91FF90EF900895AF92BF926D
S1132280CF92DF92EF92FF920F931F93CF93DF933E
S113229000D0CDB7DEB76C015B018A019A838983D4
S11322A0CA010E94D8107C010E94E213A816B90644
S11322B00CF4ACC060E1CE0101960E941214B70187
S11322C089819A810E94741329813A81820F931F14
S11322D09A838983F8018681843061F46DE272E027
S11322E0CE0101960E943B1464E0CE0101960E9447
S11322F012140BC062E372E0CE0101960E943B14FB
S113230063E0CE0101960E941214F12CF801878536
S113231080FBF1F881E09089911101C080E080FB9D
S1132320F2F8F2FE0DC0F80184A18370880F880FC3
S1132330880F9F2D977EF92EF82A83A180FBF5F84C
S1132340F80185A196A1892B21F481A592A5892B59
S113235011F06894F7F8F80183A594A5892B21F46A
S113236087A590A9892B11F06894F6F86F2DCE01FA
S113237001960E941214F80165857685CE010196B6
S11323800E941C14F801278130854185528563859C
S11323907485CE0101960E946214F8018089882315
S11323A0A9F02789308D418D528D638D748DCE01B6
S11323B001960E946214F801258D368D478D50A137
S11323C061A172A1CE0101960E946214EF2CFF203C
S11323D05CF4F80125A136A147A150A561A572A519
S11323E0CE0101960E946214E6FE0BC0F80123A5FB
S11323F034A545A556A567A570A9CE0101960E94EE
S1132400621489819A818C199D0902C08EEF9FEF15
S11324100F900F90DF91CF911F910F91FF90EF904C
S1132420DF90CF90BF90AF900895EF92FF920F93FB
S11324301F93CF93DF9300D000D0CDB7DEB77C01DC
S11324408B015A834983CE0101960E940A14807F2E
S1132450803221F5BE016D5F7F4F89819A810E9490
S1132460F11329813A81280F391F3A8329832B815B
S11324703C8122303105A4F0CE0101960E940A1459
S113248087FB882780F9F7018083CE0101960E949B
S11324900A14F801808381E090E002C080E090E0BB
S11324A00F900F900F900F90DF91CF911F910F918C
S11324B0FF90EF9008950F931F93CF93DF9300D075
S11324C0CDB7DEB79A83898362307105ACF08C0195
S11324D0642F6295607FCE0101960E94121460E021
S11324E070E089819A810E94741329813A81820F54
S11324F0931F801B910B02C08EEF9FEF0F900F90E4
S1132500DF91CF911F910F9108954CE00E945B12CF
S113251008952F923F924F925F926F927F928F9283
S11325209F92AF92BF92CF92DF92EF92FF920F935E
S11325301F93CF93DF9300D000D0CDB7DEB73C011B
S11325404B012A011901BA82A9821C821B82CE0185
S113255001960E940A14982F907F903309F04DC081
S113256083FB992790F9F3019083282F26952370F4
S113257030E0F401318320838170F2018083BE0155
S11325806D5F7F4F89819A810E94F1133C01A9807C
S1132590BA80A80EB91EBA82A9828B819C81A80E2A
S11325A0B91EA501BE016F5F7F4FC8010E94A5142B
S11325B0892B29F189819A819501281B390BC9013D
S11325C09923ECF0F40180819181181619063CF4EA
S11325D0CE0101960E94FA13F101918380838981CF
S11325E09A81A81AB90AF601B182A082F7019183EF
S11325F0808366246394712C02C0612C712CC30106
S11326000F900F900F900F90DF91CF911F910F912A
S1132610FF90EF90DF90CF90BF90AF909F908F90FE
S11326207F906F905F904F903F902F900895CF923E
S1132630DF92EF92FF920F931F93CF93DF9300D01B
S113264000D0CDB7DEB77C016B018A013A832983C0
S1132650CE0101960E940A1483FB992790F9F60192
S1132660908382958F70F7018083BE016D5F7F4FE9
S113267089819A810E94F11329813A81280F391F97
S11326803A8329832B813C81223031054CF0CE01E1
S113269001960E94FA13F8019183808381E090E00F
S11326A00F900F900F900F90DF91CF911F910F918A
S11326B0FF90EF90DF90CF900895DC011616170677
S11326C08CF4E091B103F091B203AF01460F571FB0
S11326D09A0191919C93E217F307D9F75093B203AF
S11326E04093B103CB010895DC01E0E0F0E09B01ED
S11326F02F773078332334F42150310920683F6F29
S11327002F5F3F4FAB01772314F441585F4FBA0159
S1132710660F672F661F770B1616170624F431967B
S113272020682D93E4CFDC01AE0FBF1F2C93CF01A3
S113273001960895AF92BF92CF92DF92EF92FF92EB
S11327400F931F93CF93DF931F92CDB7DEB75C0136
S11327506B01FB011182108201E010E0EE24E3948E
S1132760F12C05C00F5F1F4F05301105F1F061E03A
S113277070E0CE010196F50109950197B1F4298124
S1132780322F3F773E9DC0013F9D900D1124F601ED
S113279040815181840F951F91838083F694FE2C90
S11327A0EE24F794E7942223ECF2C8010F90DF9112
S11327B0CF911F910F91FF90EF90DF90CF90BF903A
S11327C0AF9008959C012F5F3F4F2038310514F4DA
S11327D0029608952115304414F40396089504963E
S11327E008959093B2038093B1038DE593E10E9421
S11327F09A130895DC01ED91FC911197208130E04A
S1132800322F222741813296ED93FC93C901840F24
S1132810911D0895DC01ED91FC9111978191ED9347
S1132820FC930895FC01A081B1816C938081918116
S11328300196918380830895FC01A081B181CB012D
S1132840772314F481509F4F9C93A081B181CD01D3
S1132850019691838083707877232CF461507109F9
S11328607F6F6F5F7F4F11966C938081918101968A
S1132870918380830895EF92FF920F931F93CF93D8
S1132880DF938C017B01EB0109900020E9F721978C
S1132890C61BD70BBE010E941C14AE01B701F80180
S11328A0808191810E944E1DF80180819181C80F21
S11328B0D91FD183C083DF91CF911F910F91FF90D6
S11328C0EF900895EF92FF920F931F93CF93DF93AE
S11328D000D000D000D0CDB7DEB77C0129833A8385
S11328E04B835C836D837E830B811C8110161106E0
S11328F09CF4B8010E941C146D817E81A801F7012B
S1132900808191810E944E1DF70180819181080F81
S1132910191F118300830CC069817A8161157105C7
S113292019F00E943B1404C060E070E00E941C1483
S113293026960FB6F894DEBF0FBECDBFDF91CF91C0
S11329401F910F91FF90EF900895EF92FF920F93D4
S11329501F93CF93DF938C01EB017A0188819981D6
S11329609A01281B390B22303105CCF0CB010E948F
S1132970FA13F8019383828328813981A901480FCE
S1132980591FE416F50670F03583248328813981B4
S1132990820F931F9983888381E090E005C080E0D3
S11329A090E002C080E090E0F80111821082DF9193
S11329B0CF911F910F91FF90EF900895CF93DF93E4
S11329C000D000D000D0CDB7DEB749835A836B83E3
S11329D07C838D839E83A981BA81109749F0FD0180
S11329E001900020E9F73197CF018A1B9B0B02C0AD
S11329F08B819C8126960FB6F894DEBF0FBECDBFA7
S1132A00DF91CF910895FC01A081B181109749F025
S1132A10FD0101900020E9F73197AF014A1B5B0BE0
S1132A2005C0FC01A481B58142815381FB01019061
S1132A300020E9F73197E61BF70B4E175F0759F4AF
S1132A40CD010E94571D31E020E0892B09F030E0D0
S1132A50832F922F089580E090E00895EF92FF92E3
S1132A600F931F93CF93DF9300D000D000D0CDB746
S1132A70DEB77C01F42FE52F862F972F422F532F9B
S1132A806F2F7E2F0E94DE140296800F911F1E145A
S1132A901F040CF4029626960FB6F894DEBF0FBE00
S1132AA0CDBFDF91CF911F910F91FF90EF900895CB
S1132AB02F923F924F925F926F927F928F929F924A
S1132AC0AF92BF92CF92DF92EF92FF920F931F9338
S1132AD0CF93DF93CDB7DEB72A970FB6F894DEBF56
S1132AE00FBECDBF2C011B01498739010A87282D50
S1132AF08B82392D9C824A2DAD825B2DBE826C2D3A
S1132B00CF827D2DD886C9A0DAA09A8389838601D5
S1132B10C3010E942E158C010E94E2132816390667
S1132B20DCF160E3898580FB63F9862D8370880F6F
S1132B30697F682B8A8580FB60F9CE0101960E942B
S1132B401214B80189819A810E94741329813A81EF
S1132B50820F931F9A8389832B813C814D815E81EF
S1132B606F817885CE0101960E94621416141704B1
S1132B702CF4B701CE0101960E941C14A6016F8D9E
S1132B8078A189819A810E944E1D89819A818C0D38
S1132B909D1D8419950902C08EEF9FEF2A960FB6EA
S1132BA0F894DEBF0FBECDBFDF91CF911F910F917F
S1132BB0FF90EF90DF90CF90BF90AF909F908F9059
S1132BC07F906F905F904F903F902F900895EF9279
S1132BD0FF920F931F93CF93DF9300D0CDB7DEB74F
S1132BE07C019A838983643071053CF1642F62957A
S1132BF0607F20FB63F991E0463009F090E0937028
S1132C00990F697F692BCE0101960E94121462E02C
S1132C1070E089819A810E94741329813A81820F1C
S1132C20931F9A838983B801CE0101960E941C14D4
S1132C3089819A818E199F0902C08EEF9FEF0F90B0
S1132C400F90DF91CF911F910F91FF90EF90089516
S1132C50EF92FF920F931F93CF93DF9318161906E9
S1132C60ECF47B01EB019C01220F331F820F931FB5
S1132C70880F991FE80EF91E02E010E0488159817F
S1132C806A817B818C819D810E94DE140396080FEA
S1132C90191F2696CE15DF0589F702C002E010E061
S1132CA0C801DF91CF911F910F91FF90EF9008958C
S1132CB03F924F925F926F927F928F929F92AF92C8
S1132CC0BF92CF92DF92EF92FF920F931F93CF9315
S1132CD0DF9300D0CDB7DEB75C014B01342E290160
S1132CE09A8389836E2D7F2DC8010E9428163C018A
S1132CF00E94E213881699060CF442C060E830FA88
S1132D0063F9697F6260CE0101960E941214B301D7
S1132D1089819A810E94741329813A81820F931FB9
S1132D209A838983B201CE0101960E941C14101665
S1132D3011060CF58E2C9F2C7601000F111FC00E6E
S1132D40D11EF401208131814281538164817581D6
S1132D50CE0101960E946214F7016081F2E0EF0E49
S1132D60F11CCE0101960E94121486E0880E911C7B
S1132D70EC14FD0431F789819A818A199B0902C0F8
S1132D808EEF9FEF0F900F90DF91CF911F910F91D6
S1132D90FF90EF90DF90CF90BF90AF909F908F9077
S1132DA07F906F905F904F903F9008958F929F9285
S1132DB0AF92BF92CF92DF92EF92FF920F931F9345
S1132DC0CF93DF9300D000D0CDB7DEB74C016B01B9
S1132DD07A0159011A830983CE0101960E940A14CB
S1132DE0807F803909F04AC0BE016D5F7F4F8981C1
S1132DF09A810E94F11309811A81080F191F1A83FD
S1132E0009832B813C81223031050CF442C0020F2E
S1132E10131FCE0101960E94FA13F401918380835B
S1132E20F7011182108289819A818017910748F5F0
S1132E30DD2054F180E090E006C0F70180819181AB
S1132E40C816D90624F19C012F5F3F4FF701318347
S1132E502083880F991F4501880E991ECE01019683
S1132E600E940A1490E0F4019183808389819A81FD
S1132E708017910710F381E090E00BC080E090E0B0
S1132E8008C081E090E005C08FEF9FEF02C08FEF94
S1132E909FEF0F900F900F900F90DF91CF911F91A4
S1132EA00F91FF90EF90DF90CF90BF90AF909F90E5
S1132EB08F900895EF92FF920F931F93CF93DF9318
S1132EC0EC018B017A018881382F20E0B9016D5F14
S1132ED07B4F072E000C880B990B0E94F30587315A
S1132EE061F488810E942707892B51F0A701B8015A
S1132EF088810E949F04CB0105C080E090E002C05D
S1132F0080E090E0DF91CF911F910F91FF90EF90BF
S1132F100895EF92FF920F931F93CF93DF93EC01E9
S1132F208B017A018881382F20E0B9016D5F7B4FD6
S1132F30072E000C880B990B0E94F305873139F496
S1132F40A701B80188810E946F03CB0102C080E011
S1132F5090E0DF91CF911F910F91FF90EF90089532
S1132F60FC0180810E94EB020895809121089091D8
S1132F702208A0912308B09124080196A11DB11D37
S1132F808093210890932208A0932308B0932408E7
S1132F900895FC0114821582168217820895FC019B
S1132FA084819581A681B78140912108509122089E
S1132FB06091230870912408841B950BA60BB70B12
S1132FC08827B7FD83959927AA27BB2708959B01D6
S1132FD0409121085091220860912308709124089F
S1132FE0420F531F611D711DFC0144835583668389
S1132FF07783089548EE53E0649F9001659F300DF8
S1133000749F300D11244091210850912208609141
S1133010230870912408420F531F611D711DFC0188
S113302044835583668377830895FC018481958165
S1133030A681B7814091210850912208609123080C
S113304070912408841B950BA60BB70B1AF480E02F
S113305090E0DC010895FC01718360838AE597E1C7
S11330609383828389E897E19583848380EB97E156
S1133070978386830895E0ECF0E0908195FFFDCF7F
S11330808093C6000895DF92EF92FF920F931F93EF
S1133090CF93DF931F92CDB7DEB719822981211117
S11330A01AC07C0100E010E0DD24D394F701E00FA6
S11330B0F11F80818A3029F00E943B180F5F1F4F57
S11330C004C0D9828AE00E943B180E3111051CF419
S11330D09981992359F30F90DF91CF911F910F910B
S11330E0FF90EF90DF900895EF92FF920F931F935C
S11330F0CF93DF93EC018B017A0189E392E00E9484
S1133100431820E049E350E361E088810E94020112
S113311086E492E00E944318A701B80188810E94C6
S113312002028EE492E00E944318DF91CF911F9136
S11331300F91FF90EF900895EF92FF920F931F93DA
S1133140CF93DF93CDB7DEB7C456D1090FB6F89449
S1133150DEBF0FBECDBFDC010D911C918091290112
S113316090912A01892B49F1F80165817681CE017C
S113317001967C01478150850E944E1DD801179607
S1133180ED91FC911897EC0FFD1F8AE08283FF926A
S1133190EF9287E592E09F938F9383EB93E09F9365
S11331A08F930E948A1D83EB93E00E94161D0F905B
S11331B00F900F900F900F900F9080911C019091A1
S11331C01D01892BE9F0F80186818F9385818F9306
S11331D080858F9387818F938CE592E09F938F9363
S11331E083EB93E09F938F930E948A1D83EB93E07C
S11331F00E94161D0FB6F894DEBF0FBECDBF29C0C6
S1133200EAE1F1E085818F9384818F93D80116964A
S11332108C9116978F9315968C9115978F9318967A
S11332208C9118978F9317968C918F9381E692E0E7
S11332309F938F9383EB93E09F938F930E948A1DB8
S113324083EB93E00E94161D0FB6F894DEBF0FBE09
S1133250CDBFCC59DF4F0FB6F894DEBF0FBECDBF44
S1133260DF91CF911F910F91FF90EF900895CF932D
S1133270DF93CDB7DEB7C750D1400FB6F894DEBFA9
S11332800FBECDBF84B5806884BD85B5836085BD20
S11332908CE787BDEEE6F0E08081826080837894DD
S11332A020E045E063E4CE0101960E94A51B20E0E6
S11332B042E063E4CE0105960E94A51B80E190E004
S11332C00E94031D88E692E00E94161D0E94FD1CC8
S11332D060E0CE0101960E94AC1B60E0CE01059631
S11332E00E94AC1B8CE792E00E94161D61E0CE01A7
S11332F001960E94AC1B8BE291E00E94BE0A8BE80F
S113330092E00E94161D26E030E047E158E069E0B3
S113331070E080E090E00E941D068FE992E00E9438
S1133320161D84EB92E00E94161D60E070E0CE0151
S113333083599F4F0E942B188EEC92E00E94161D19
S113334040914201509143016DE178E0CE018359EF
S11333509F4F0E9474188AED92E00E94161DC12CA2
S11333606894DD24D3F80F2EF7E1EF2EF4E0FF2E5E
S1133370F02D04E610E09E01275F3F4F48EE53E036
S1133380BE0163597F4FCE018B589F4F0E94690B3A
S11333908AEE92E00E94161D81E3E5E7F1E0DE018A
S11333A0AA55BF4F01900D928A95E1F7CA54DF4F99
S11333B01882C65BD04083E0C455DF4F8883CC5A63
S11333C0D0400AE111E0F80180819181C355DF4FBB
S11333D099838883CD5AD04087819085C553DF4F28
S11333E099838883CB5CD04081859285CF52DF4F0F
S11333F099838883C15DD04085E093E00E94161DC7
S11334008CE390E0CD54DF4F99838883C35BD04035
S113341081E0CB54DF4F8883C55BD040BE016A5541
S11334207F4FCE018B589F4F0E947E0E7C0183E21A
S113343093E00E94161D4AE0BE0169527F4FC70106
S11334400E94651D81E090E0F801908B878786E3F8
S113345093E00E94161D82E693E00E94161D2CE95B
S113346038E1F801468167E473E0CE018B589F4F41
S11334700E94220F84E593E00E94161DCE0186511E
S11334809F4F21E1E1E7F3E0DC0101900D922A95E1
S1133490E1F7CA51DF4F99838883C65ED040FC01AF
S11334A001900020E9F79F01281B390BC851DF4F19
S11334B039832883C85ED040CF51DF4F1882C15E64
S11334C0D040CE51DF4F1882C25ED040AE014F5182
S11334D05F4F67E473E0CE018B589F4F0E94F00F5B
S11334E0CD54DF4F68817981C35BD040CE018B58C6
S11334F09F4F0E94230EF4CF1F920F920FB60F928C
S113350011242F933F934F935F936F937F938F93E4
S11335109F93AF93BF93EF93FF930E94B517FF91CF
S1133520EF91BF91AF919F918F917F916F915F9137
S11335304F913F912F910F900FBE0F901F901895B0
S11335408091420190914301909328018093270137
S11335500895DC018C91823409F055C01196EC91E8
S113356011974E2F50E04830510508F04CC0FA0135
S1133570EC5CFF4F0C94481D12968C911297882393
S113358011F0209840C0209A3EC012968C91129758
S1133590882311F0219837C0219A35C012968C9156
S11335A01297882311F022982EC0229A2CC01296CA
S11335B08C911297882311F0239825C0239A23C055
S11335C012968C911297882311F024981CC0249A87
S11335D01AC012968C911297882311F0259813C063
S11335E0259A11C012968C911297882311F026986F
S11335F00AC0269A08C012968C911297882311F05B
S1133600279801C0279A8C91833409F04CC01196F5
S1133610EC9111974E2F50E04730510508F043C00C
S1133620FA01E45CFF4F0C94481D12968C9112979A
S1133630882311F0389837C0389A35C012968C9187
S11336401297882311F039982EC0399A2CC01296FB
S11336508C911297882311F03A9825C03A9A23C086
S113366012968C911297882311F03B981CC03B9AB8
S11336701AC012968C911297882311F03C9813C0AB
S11336803C9A11C012968C911297882311F03D98A0
S11336900AC03D9A08C012968C911297882311F0A3
S11336A03E9801C03E9A8C91843409F04DC0119625
S11336B0EC9111974E2F50E04830510508F044C06A
S11336C0FA01ED5BFF4F0C94481D12968C918823F0
S11336D011F050980895509A089512968C91882369
S11336E011F051980895519A089512968C91882357
S11336F011F052980895529A089512968C91882345
S113370011F053980895539A089512968C91882332
S113371011F054980895549A089512968C91882320
S113372011F055980895559A089512968C9188230E
S113373011F056980895569A089512968C918823FC
S113374011F057980895579A0895FC0160834183B6
S113375022830E94A91A0895DC01962F8C91823449
S113376009F075C01196EC9111974E2F50E0483036
S1133770510508F06CC0FA01E55BFF4F0C94481D3D
S1133780992331F0289A81E013968C9313975FC0A4
S1133790289813961C9213975AC0992331F0299AAA
S11337A081E013968C93139752C0299813961C9218
S11337B013974DC0992331F02A9A81E013968C9384
S11337C0139745C02A9813961C92139740C09923C7
S11337D031F02B9A81E013968C93139738C02B9871
S11337E013961C92139733C0992331F02C9A81E0DD
S11337F013968C9313972BC02C9813961C921397A3
S113380026C0992331F02D9A81E013968C93139757
S11338101EC02D9813961C92139719C0992331F04A
S11338202E9A81E013968C93139711C02E981396B9
S11338301C9213970CC0992331F02F9A81E01396B0
S11338408C93139704C02F9813961C9213978C9102
S1133850833409F068C01196EC9111974E2F50E013
S11338604730510508F05FC0FA01ED5AFF4F0C9440
S1133870481D992331F0409A81E013968C93139755
S113388052C0409813961C9213974DC0992331F05F
S1133890419A81E013968C93139745C041981396EF
S11338A01C92139740C0992331F0429A81E01396F9
S11338B08C93139738C0429813961C92139733C075
S11338C0992331F0439A81E013968C9313972BC07C
S11338D0439813961C92139726C0992331F0449A67
S11338E081E013968C9313971EC0449813961C92F0
S11338F0139719C0992331F0459A81E013968C935C
S1133900139711C0459813961C9213970CC09923D2
S113391031F0469A81E013968C93139704C046982D
S113392013961C9213978C91843409F065C01196F8
S1133930EC9111974E2F50E04830510508F05CC0CF
S1133940FA01E65AFF4F0C94481D992329F0589A1E
S113395081E013968C930895589813961C920895B9
S1133960992329F0599A81E013968C9308955998D4
S113397013961C920895992329F05A9A81E013967C
S11339808C9308955A9813961C920895992329F0BC
S11339905B9A81E013968C9308955B9813961C921E
S11339A00895992329F05C9A81E013968C930895E5
S11339B05C9813961C920895992329F05D9A81E0EE
S11339C013968C9308955D9813961C9208959923E9
S11339D029F05E9A81E013968C9308955E9813966D
S11339E01C920895992329F05F9A81E013968C9391
S11339F008955F9813961C9208958CE284B981E52A
S1133A008CBD789408959093C5008093C40088E198
S1133A108093C10086E08093C2000895E0ECF0E05A
S1133A20908195FFFDCF8093C6000895DF92EF92B9
S1133A30FF920F931F93CF93DF931F92CDB7DEB7FF
S1133A407C01198200E010E0DD24D39403C0043625
S1133A501105ACF48981811112C00AC00E940E1DA7
S1133A600F5F1F4FF4CFD9828AE00E940E1DEFCF63
S1133A70F701E00FF11F80818A3081F7F4CF0F90B6
S1133A80DF91CF911F910F91FF90EF90DF900895F8
S1133A90EE0FFF1F0590F491E02D0994FB01DC016A
S1133AA002C001900D9241505040D8F70895FB0197
S1133AB0DC014150504030F08D910190801919F48F
S1133AC00020B9F7881B990B0895BB274A3031F4BD
S1133AD0992322F4BDE2909581959F4F0C94711D1A
S1133AE0BB27FB015527AA27880F991FAA1FA417D4
S1133AF010F0A41B83955051B9F7A05DAA3308F0C8
S1133B00A95DA193009779F7B111B1931192CB01FB
S1133B100C94A31FAEE0B0E0E0E9FDE10C945B205F
S1133B200D891E8986E08C831A8309838FEF9FE7B2
S1133B309E838D83AE01475E5F4F6F89788DCE0182
S1133B4001960E94AC1DEF81F885E00FF11F1082F1
S1133B502E96E4E00C947720ABE0B0E0E2EBFDE1DC
S1133B600C944D206C017B018A01FC0117821682A2
S1133B70838181FFCCC1CE0101963C01F601938182
S1133B80F70193FD859193FF81917F01882309F4C7
S1133B90BAC1853239F493FD859193FF81917F01F8
S1133BA0853229F4B60190E00E94B31FE7CF912C2F
S1133BB0212C312CFFE1F315D8F08B3279F038F455
S1133BC0803279F08332A1F4232D20611DC08D321F
S1133BD061F0803369F4232D216016C0832D826047
S1133BE0382EE32DE4603E2E2AC0F32DF8601DC06C
S1133BF037FC2DC020ED280F2A3040F08E32B9F466
S1133C0036FC81C1232D2064322E19C036FE06C035
S1133C108AE0989E200D1124922E11C0EAE02E9E77
S1133C20200D1124222EF32DF0623F2E08C08C3675
S1133C3021F4832D8068382E02C0883641F4F701C0
S1133C4093FD859193FF81917F018111B3CF982FCB
S1133C509F7D9554933028F40C5F1F4F9FE3998305
S1133C600DC0833631F0833771F0833509F059C0C4
S1133C7021C0F801808189830E5F1F4F88248394BB
S1133C80912C530113C02801F2E04F0E511CF8018E
S1133C90A080B18036FE03C0692D70E002C06FEFD2
S1133CA07FEFC5010E94981F4C018201F32DFF771D
S1133CB03F2E16C0280122E0420E511CF801A080BC
S1133CC0B18036FE03C0692D70E002C06FEF7FEF54
S1133CD0C5010E948D1F4C01F32DF0683F2E820117
S1133CE033FC1BC0822D90E088169906B0F4B6010F
S1133CF080E290E00E94B31F2A94F4CFF50137FCD0
S1133D00859137FE81915F01B60190E00E94B31F57
S1133D1021102A9421E0821A91088114910471F7E8
S1133D20E8C0843611F0893641F5F80137FE07C042
S1133D3060817181828193810C5F1F4F08C0608113
S1133D407181072E000C880B990B0E5F1F4FF32D0A
S1133D50FF763F2E97FF09C09095809570956195E9
S1133D607F4F8F4F9F4FF0683F2E2AE030E0A30132
S1133D700E94EF1F882E861845C0853731F4232D05
S1133D802F7EB22E2AE030E025C0932D997FB92EE4
S1133D908F36C1F018F4883579F0B5C0803719F042
S1133DA0883721F0B0C0E92FE061BE2EB4FE0DC00B
S1133DB0FB2DF460BF2E09C034FE0AC0292F2660F3
S1133DC0B22E06C028E030E005C020E130E002C099
S1133DD020E132E0F801B7FE07C060817181828181
S1133DE093810C5F1F4F06C06081718180E090E079
S1133DF00E5F1F4FA3010E94EF1F882E8618FB2D14
S1133E00FF773F2E36FE0DC0232D2E7FA22E891460
S1133E1058F434FE0BC032FC09C0832D8E7EA82ECC
S1133E2005C0B82CA32C03C0B82C01C0B92CA4FE27
S1133E300FC0FE01E80DF11D8081803321F49A2D1D
S1133E40997EA92E09C0A2FE06C0B394B39404C0FF
S1133E508A2D867809F0B394A3FC11C0A0FE06C095
S1133E60B21488F4280C922C9B180EC0B21460F47F
S1133E70B60180E290E00E94B31FB394F7CFB2146E
S1133E8018F42B1802C0982C212CA4FE10C0B601E3
S1133E9080E390E00E94B31FA2FE17C0A1FC03C000
S1133EA088E790E002C088E590E0B6010CC08A2D56
S1133EB0867859F0A1FE02C08BE201C080E2A7FC23
S1133EC08DE2B60190E00E94B31F891438F4B60164
S1133ED080E390E00E94B31F9A94F7CF8A94F30191
S1133EE0E80DF11D8081B60190E00E94B31F81109E
S1133EF0F5CF222009F442CEB60180E290E00E9480
S1133F00B31F2A94F6CFF6018681978102C08FEF02
S1133F109FEF2B96E2E10C946920FC01059061501F
S1133F2070400110D8F7809590958E0F9F1F0895CB
S1133F30FC016150704001900110D8F78095909574
S1133F408E0F9F1F0895DC01FC01672F7191772369
S1133F50E1F7329704C07C916D9370836291AE1740
S1133F60BF07C8F308950F931F93CF93DF93FB010B
S1133F70238121FD03C08FEF9FEF2CC022FF16C0C9
S1133F8046815781248135814217530744F4A08127
S1133F90B1819D012F5F3F4F318320838C93268114
S1133FA037812F5F3F4F3783268314C08B01EC0189
S1133FB0FB010084F185E02D0995892BE1F6D801F8
S1133FC016968D919C911797019617969C938E93B4
S1133FD01697CE01DF91CF911F910F910895FA01A9
S1133FE0AA27283051F1203181F1E8946F936E7F34
S1133FF06E5F7F4F8F4F9F4FAF4FB1E03ED0B4E025
S11340003CD0670F781F891F9A1FA11D680F791F65
S11340108A1F911DA11D6A0F711D811D911DA11D76
S113402020D009F468943F912AE0269F1124301986
S1134030305D3193DEF6CF010895462F4770405D21
S11340404193B3E00FD0C9F7F6CF462F4F70405DD0
S11340504A3318F0495D31FD4052419302D0A9F72B
S1134060EACFB4E0A6959795879577956795BA9525
S1134070C9F700976105710508959B01AC010A2EEB
S113408006945795479537952795BA95C9F7620FC2
S1134090731F841F951FA01D08952F923F924F9266
S11340A05F926F927F928F929F92AF92BF92CF92C4
S11340B0DF92EF92FF920F931F93CF93DF93CDB7CD
S11340C0DEB7CA1BDB0B0FB6F894DEBF0FBECDBF45
S11340D009942A88398848885F846E847D848C8416
S11340E09B84AA84B984C884DF80EE80FD800C811F
S11340F01B81AA81B981CE0FD11D0FB6F894DEBF02
S10F41000FBECDBFED010895F894FFCF71
S113410C00C00002573531303000670A680A690A6A
S113411C6B0A6D0A700A00000000820300005A0248
S113412C00940394031D0800000000DEAD77E83E04
S113413CEDC0A84FB1FFFFFFE0C0A84FA1C25E7F46
S113414CC4015B074D5154430000040000000000FF
S113415C003C0001004D51545700000000000000C9
S113416C000000000000000000000000000000003F
S113417C00000000004D51544300000400000000F6
S113418C00003C0001004D51545700000000000099
S113419C000000000000000000000000000000000F
S11341AC00000000000077697A636869705F7365CA
S11341BC746E6574696E666F3A0A006D6163207380
S11341CC65740A006777207365740A007375626EF0
S11341DC6574207365740A006970207365740A0031
S11341EC436F6E6E6563742046756E6374696F6E8F
S11341FC20537461727465640A004F7074696F6E35
S113420C73203D3D2030200A0053656E6450616379
S113421C6B20213D20537563636573730A007263CD
S113422C203D3D20537563636573730A004D5154EF
S113423C54004D51497364700074727932436F6E3B
S113424C6E6563740A00736F636B65740A00636F45
S113425C6E6E6563740A0025730D0A00252E2A738D
S113426C00252E2A73257300555341525420696E30
S113427C697469616C697A65642E0A004C656473AF
S113428C2067657365747A742E0A0077697A63689B
S113429C69705F7365746E6574696E666F0A004D40
S11342AC414320416472657373652067657365745B
S11342BC7A740A004E65756573204E65747A776559
S11342CC726B2065727374656C6C742E0A004E6587
S11342DC774E6574776F726B0A00436F6E6E65630D
S11342EC744E6574776F726B0A004D5154542043AD
S11342FC6C69656E7420696E697469616C69736943
S113430C6572740A004D51545420557365726E6174
S113431C6D6520756E642050572067657365747ADB
S113432C740A00436F6E6E656374656420746F2049
S113433C4D5154540A005375627363726962696E09
S113434C6720746F200A0068656C6C6F2F77697A2C
S113435C6E6574005375627363726962656420746C
S113436C6F2068656C6C6F2F77697A6E6574200AA0
S113437C0048656C6C6F2066726F6D2041746D65BE
S113438C6C007374646F75742D73756273637269E6
S10F439C626572005858585858580000C8
S9030000FC
